:100000000C9432000C9451000C946A000C944F0034
:100010000C944F000C944F000C944F000C944F0024
:100020000C944F000C948A000C944F000C944F00D9
:100030000C944F000C944F000C944F000C944F0004
:100040000C944F000C944F000C944F000C944F00F4
:100050000C944F005D0163016E017E019301A601C6
:10006000B701C60111241FBECFE5D8E0DEBFCDBF6A
:1000700010E0A0E6B0E0EEEDF7E002C005900D92D2
:10008000AA37B107D9F720E0AAE7B0E001C01D9276
:10009000A838B207E1F70E94D5010C94ED030C9447
:1000A00000001F920F920FB60F9211248F93809130
:1000B0007E00882331F080917A008F5F80937A00F0
:1000C00003C08F5F80937E008F910F900FBE0F90C3
:1000D0001F9018951F920F920FB60F9211248F93B5
:1000E00080917D00882369F010927C0080917B00D4
:1000F000843019F410927B0007C08F5F80937B00DF
:1001000003C08F5F80937D008F910F900FBE0F9083
:100110001F9018951F920F920FB60F9211248F9374
:100120009F9380917C008F5F80937C0080EB9CE3A9
:100130009DBD8CBD9F918F910F900FBE0F901F9012
:10014000189590917C0090917C00923018F40E9458
:10015000B503089590917C00923038F090917C0026
:10016000943118F40E94A403089580917C00843196
:1001700010F010927C00089590917C0090917C008A
:10018000943018F40E94B503089590917C00943047
:1001900038F090917C00943118F40E94A4030895E3
:1001A00080917C00843110F010927C000895909131
:1001B0007C0090917C00963018F40E94B50308955D
:1001C00090917C00963038F090917C00943118F436
:1001D0000E94A403089580917C00843110F0109255
:1001E0007C00089590917C0090917C009A3018F4E6
:1001F0000E94B503089590917C009A3038F0909158
:100200007C00943118F40E94A403089580917C002E
:10021000843110F010927C00089590917C009091B0
:100220007C00903118F40E94B503089590917C00F1
:10023000903138F090917C00943118F40E94A4031E
:10024000089580917C00843110F010927C00089514
:10025000823099F028F4882341F0813051F00895DC
:10026000833079F0843089F00895862F0E94A100B0
:100270000895862F0E94BC000895862F0E94D70003
:100280000895862F0E94F2000895862F0E940D0186
:1002900008950E946D030E94C60381E00E945C03E2
:1002A000E0917A008E2F90E0FC013197E830F10563
:1002B000B8F7E65DFF4F0C94E70361E080917B00A7
:1002C0000E942801EDCF61E080917B000E9428010F
:1002D00062E080917B000E942801E2CF61E0809182
:1002E0007B000E94280162E080917B000E9428012F
:1002F00063E080917B000E942801D2CF61E0809171
:100300007B000E94280162E080917B000E9428010E
:1003100063E080917B000E94280164E080917B0073
:100320000E942801BDCF81E00E94A40362E0809179
:100330007B000E94280163E080917B000E942801DD
:1003400064E080917B000E942801AACF81E00E9496
:10035000A40382E00E94A40363E080917B000E94DA
:10036000280164E080917B000E94280199CF81E000
:100370000E94A40382E00E94A40383E00E94A403DD
:1003800064E080917B000E9428018ACF81E00E9476
:10039000A40382E00E94A40383E00E94A40384E0FB
:1003A0000E94A40310927A007BCF0E94490180E052
:1003B00090E008958032A8F5883058F49AB370E040
:1003C00002C0660F771F8A95E2F7692B6ABB80E04F
:1003D0000895803160F4885097B370E002C0660FD2
:1003E000771F8A95E2F7692B67BB80E00895883113
:1003F00060F4805194B370E002C0660F771F8A9555
:10040000E2F7692B64BB80E00895885191B370E0F6
:1004100002C0660F771F8A95E2F7692B61BB80E007
:10042000089581E00895803208F085C08830F8F49E
:10043000613071F44BB321E030E0B90102C0660FC6
:10044000771F8A95E2F7CB01842B8BBB80E0089560
:100450004BB321E030E0B90102C0660F771F8A95E7
:10046000E2F7CB01809584238BBB80E00895803137
:1004700000F58850613071F448B321E030E0B901F3
:1004800002C0660F771F8A95E2F7CB01842B88BBE9
:1004900080E0089548B321E030E0B90102C0660F62
:1004A000771F8A95E2F7CB018095842388BB80E093
:1004B0000895883100F58051613071F445B321E031
:1004C00030E0B90102C0660F771F8A95E2F7CB01D1
:1004D000842B85BB80E0089545B321E030E0B9016D
:1004E00002C0660F771F8A95E2F7CB0180958423BF
:1004F00085BB80E008958851613071F442B321E0FA
:1005000030E0B90102C0660F771F8A95E2F7CB0190
:10051000842B82BB80E0089542B321E030E0B90132
:1005200002C0660F771F8A95E2F7CB01809584237E
:1005300082BB80E0089581E00895833008F049C0CF
:10054000623008F048C09BB7E82FF0E0E05AFF4F58
:1005500021E030E0008002C0220F331F0A94E2F74E
:10056000292B2BBF823079F4662319F0613031F0EA
:1005700034C084B78F7B84BF80E0089584B78064E3
:1005800084BF80E00895811112C0662319F06130A4
:1005900049F025C085B7826085BF85B78E7F85BF4E
:1005A00080E0089585B7836085BF80E00895662365
:1005B00019F0613049F015C085B7886085BF85B7EF
:1005C0008B7F85BF80E0089585B78C6085BF80E014
:1005D000089581E0089581E0089580E0089580E025
:1005E000089580E008958330A8F5282F30E0F901C0
:1005F000EB57FF4F9081913079F1813089F018F0FD
:100600008230D9F02BC083B7816083BF89B7816006
:1006100089BFF901EB57FF4F81E0808380E00895A7
:100620008EB581608EBD89B7846089BFF901EB57B3
:10063000FF4F81E0808380E0089585B5816085BDAE
:1006400089B7806489BFF901EB57FF4F81E0808350
:1006500080E0089584E0089581E0089580E00895A1
:10066000833010F5282F30E0F901EE0FFF1FED5910
:10067000FF4F4081518164177507C0F4F901EB57B2
:10068000FF4F90819130A1F4813039F018F0823021
:1006900041F010C062BF80E008957DBD6CBD80E078
:1006A000089564BD80E0089584E0089584E008958D
:1006B00081E0089580E00895CF93833058F4C82FE7
:1006C0000E94F30260EB7CE38C2F0E94300378944D
:1006D00080E001C084E0CF910895EF92FF920F93E4
:1006E0001F93CF93DF9310E026C0C12FD0E0CE013F
:1006F000880F991F880F991F9C0127593F4F790137
:10070000F901008160E0802F0E94DA0161E0802F12
:100710000E94130260E0F70183810E949D02CE01D6
:10072000880F991FC80FD91FC158DF4F85E08883F4
:1007300019821A821F5F1230C0F2DF91CF911F9190
:100740000F91FF90EF900895853068F4E82FF0E066
:100750003197EE0FFF1FEF58FF4F60E080810E943E
:10076000130280E0089581E00895853068F4E82F51
:10077000F0E03197EE0FFF1FEF58FF4F61E08081EF
:100780000E94130280E0089581E008951F93CF93A3
:10079000DF9310E016C0C12FD0E0CC0FDD1FCF5883
:1007A000DF4F61E088810E94DA018981813021F484
:1007B000810F0E94B50304C081E0810F0E94A40351
:1007C0001F5F143040F3DF91CF911F910895EE0F1A
:0E07D000FF1F0590F491E02D0994F894FFCFDF
:1007DE00060705FF00FFFFFF001A0114001B01149E
:0A07EE0001080009000A000B0000DA
:00000001FF
