S00E00004C45445F56312E737265635B
S11300000C942A000C9447000C9447000C9447006D
S11300100C9447000C9447000C9447000C94470040
S11300200C9447000C9447000C9447000C94470030
S11300300C9447000C9447000C9447000C94470020
S11300400C9447000C9447000C9447000C94470010
S11300500C94470011241FBECFE5D8E0DEBFCDBF0E
S113006010E0A0E6B0E0ECE5F5E002C005900D92EA
S1130070A438B107D9F720E0A4E8B0E001C01D928C
S1130080A738B207E1F70E9449000C94AC020C9423
S113009000000E945E000E947F020E94920280E0A3
S11300A00E949D02853019F482E088BBF6CF81114D
S11300B003C084E088BBF1CF18BAEFCF80E007C05B
S11300C0E82FF0E0E05AFF4F90819ABB8F5F8830B1
S11300D0B8F380E007C0E82FF0E0E859FF4F9081C3
S11300E097BB8F5F8830B8F380E007C0E82FF0E05B
S11300F0E059FF4F908194BB8F5F8830B8F380E064
S113010007C0E82FF0E0E858FF4F908191BB8F5F64
S11301108830B8F30895803208F06AC08830B8F4A3
S113012099B321E030E0A901082E02C0440F551F05
S11301300A94E2F7292F30E024233523A90102C0D1
S1130140569547958A95E2F7FB0140834BC0803171
S1130150C0F4885096B321E030E0A901082E02C013
S1130160440F551F0A94E2F7292F30E02423352346
S1130170A90102C0569547958A95E2F7FB01408391
S113018031C08831C0F4805193B321E030E0A9013B
S1130190082E02C0440F551F0A94E2F7292F30E0BD
S11301A024233523A90102C0569547958A95E2F781
S11301B0FB01408317C0885190B321E030E0A901CE
S11301C0082E02C0440F551F0A94E2F7292F30E08D
S11301D024233523A90102C0569547958A95E2F751
S11301E0FB014083FB0180818170808380E008955E
S11301F081E008950F931F93CF93DF931F92CDB7A0
S1130200DEB7082F10E0F801EE0FFF1FE00FF11F1B
S1130210E058FF4FBE016F5F7F4F80810E948B00CB
S11302208981813061F4F801EE0FFF1F0E0F1F1F4B
S1130230F801EC57FF4F118284E080831BC0C80192
S1130240880F991F800F911FFC01EC57FF4F2181EC
S11302502F5F2183FC01E058FF4F818128130AC0DE
S1130260F801EE0FFF1F0E0F1F1FF801EC57FF4F91
S113027081E080830F90DF91CF911F910F910895BA
S11302800F931F93CF93DF931F92CDB7DEB7082F41
S113029010E0F801EE0FFF1FE00FF11FE058FF4FD1
S11302A0BE016F5F7F4F80810E948B008981813006
S11302B061F4F801EE0FFF1F0E0F1F1FF801EC573A
S11302C0FF4F118284E080830BC0F801EE0FFF1F03
S11302D00E0F1F1FF801EC57FF4F128282E080833C
S11302E00F90DF91CF911F910F9108950F931F935A
S11302F0CF93DF931F92CDB7DEB7082F10E0F8013C
S1130300EE0FFF1FE00FF11FE058FF4FBE016F5FBC
S11303107F4F80810E948B008981813061F4F801D4
S1130320EE0FFF1F0E0F1F1FF801EC57FF4F118236
S113033084E082831BC0C801880F991F800F911F1E
S1130340FC01EC57FF4F22812F5F2283FC01E05810
S1130350FF4F8281281750F0F801EE0FFF1F0E0F98
S11303601F1FF801EC57FF4F83E080830F90DF914C
S1130370CF911F910F9108950F931F93CF93DF9304
S11303801F92CDB7DEB7082F10E0F801EE0FFF1F64
S1130390E00FF11FE058FF4FBE016F5F7F4F808178
S11303A00E948B008981813059F4F801EE0FFF1F00
S11303B00E0F1F1FF801EC57FF4F118284E080835A
S11303C00F90DF91CF911F910F9108950F931F9379
S11303D0CF93DF931F92CDB7DEB7082F10E0F8015B
S11303E0EE0FFF1FE00FF11FE058FF4FBE016F5FDC
S11303F07F4F80810E948B0089818130E1F4C801A4
S1130400880F991F800F911FFC01EC57FF4F21812A
S11304102F5F2183FC01E058FF4F8181281315C011
S1130420F801EE0FFF1F0E0F1F1FF801EC57FF4FCF
S113043085E080830AC0F801EE0FFF1F0E0F1F1F17
S1130440F801EC57FF4F118210820F90DF91CF918A
S11304501F910F9108950F931F93CF93DF931F92D2
S1130460CDB7DEB7082F10E0F801EE0FFF1FE00F45
S1130470F11FE058FF4FBE016F5F7F4F80810E94E4
S11304808B00898181110AC0F801EE0FFF1F0E0F46
S11304901F1FF801EC57FF4F118210820F90DF915C
S11304A0CF911F910F910895282F30E0F901EE0F9D
S11304B0FF1F2E0F3F1FF901EC57FF4F9081923021
S11304C091F028F4992349F0913051F00895943033
S11304D081F060F0953081F008950E94FA0008954B
S11304E00E94400108950E94760108950E94BC0173
S11304F008950E94E60108950E942B02089580E069
S11305000EC0E82FF0E09F01220F331FE20FF31F0C
S1130510EC57FF4F95E09083118212828F5F8823FE
S113052081F30895CF93C0E004C08C2F0E9454023D
S1130530CF5FCC23D1F3CF91089581110BC090E00C
S1130540FC01EE0FFF1F8E0F9F1FFC01EC57FF4FA6
S10F05508081089586E00895F894FFCFA0
S113055C0000000000000000010101010000000087
S113056C000000000000000000000000000000007B
S107057C1201140050
S9030000FC
