:100000000C942A000C9447000C9447000C94470071
:100010000C9447000C9447000C9447000C94470044
:100020000C9447000C9447000C9447000C94470034
:100030000C9447000C9447000C9447000C94470024
:100040000C9447000C9447000C9447000C94470014
:100050000C94470011241FBECFE5D8E0DEBFCDBF12
:1000600010E0A0E6B0E0E8E3F7E002C005900D92F2
:10007000AC36B107D9F720E0ACE6B0E001C01D9284
:10008000AF36B207E1F70E9471000C949A030C940A
:1000900000000E9425030E947903D1E0C1E005C061
:1000A000D1E0C0E002C0D1E0C1E00E944703C1300E
:1000B00061F480E00E9452038530B9F78D2F0E94D1
:1000C0006D03D43069F3DF5FF0CF80E00E9452030C
:1000D000853059F78D2F0E946103D43021F3DF5F03
:1000E000E4CF0E94490080E090E008958032A8F5B6
:1000F000883058F49AB370E002C0660F771F8A9573
:10010000E2F7692B6ABB80E00895803160F4885083
:1001100097B370E002C0660F771F8A95E2F7692BEC
:1001200067BB80E00895883160F4805194B370E03B
:1001300002C0660F771F8A95E2F7692B64BB80E0E7
:100140000895885191B370E002C0660F771F8A95B9
:10015000E2F7692B61BB80E0089581E00895803269
:1001600008F06AC08830B8F499B321E030E0A90102
:10017000082E02C0440F551F0A94E2F7292F30E0E1
:1001800024233523A90102C0569547958A95E2F7A5
:10019000FB0140834BC08031C0F4885096B321E00E
:1001A00030E0A901082E02C0440F551F0A94E2F75F
:1001B000292F30E024233523A90102C05695479505
:1001C0008A95E2F7FB01408331C08831C0F4805149
:1001D00093B321E030E0A901082E02C0440F551F5F
:1001E0000A94E2F7292F30E024233523A90102C025
:1001F000569547958A95E2F7FB01408317C08851D1
:1002000090B321E030E0A901082E02C0440F551F31
:100210000A94E2F7292F30E024233523A90102C0F4
:10022000569547958A95E2F7FB014083FB01808153
:100230008170808380E0089581E00895803208F025
:1002400085C08830F8F4613071F44BB321E030E0C0
:10025000B90102C0660F771F8A95E2F7CB01842BA4
:100260008BBB80E008954BB321E030E0B90102C0C0
:10027000660F771F8A95E2F7CB01809584238BBBAD
:1002800080E00895803100F58850613071F448B302
:1002900021E030E0B90102C0660F771F8A95E2F7CE
:1002A000CB01842B88BB80E0089548B321E030E087
:1002B000B90102C0660F771F8A95E2F7CB018095DE
:1002C000842388BB80E00895883100F58051613037
:1002D00071F445B321E030E0B90102C0660F771F29
:1002E0008A95E2F7CB01842B85BB80E0089545B366
:1002F00021E030E0B90102C0660F771F8A95E2F76E
:10030000CB018095842385BB80E0089588516130BE
:1003100071F442B321E030E0B90102C0660F771FEB
:100320008A95E2F7CB01842B82BB80E0089542B32B
:1003300021E030E0B90102C0660F771F8A95E2F72D
:10034000CB018095842382BB80E0089581E00895ED
:100350000F931F93CF93DF931F92CDB7DEB7082F74
:1003600010E0F801EE0FFF1FE00FF11FE05AFF4F02
:10037000BE016F5F7F4F80810E94AF008981813015
:1003800051F4F801EE0FFF1F0E0F1F1FF801E45983
:10039000FF4F808309C0F801EE0FFF1F0E0F1F1FD4
:1003A000F801E459FF4F10820F90DF91CF911F9118
:1003B0000F9108950F931F93CF93DF931F92CDB7A3
:1003C000DEB7082F10E0F801EE0FFF1FE00FF11F5E
:1003D000E05AFF4FBE016F5F7F4F80810E94AF00E8
:1003E0008981813059F4F801EE0FFF1F0E0F1F1F96
:1003F000F801E459FF4F82E080830AC0F801EE0F54
:10040000FF1F0E0F1F1FF801E459FF4F85E0808387
:100410000F90DF91CF911F910F9108950F931F932C
:10042000CF93DF931F92CDB7DEB7082F10E0F8010E
:10043000EE0FFF1FE00FF11FE05AFF4FBE016F5F8D
:100440007F4F80810E94AF008981813059F4F8018B
:10045000EE0FFF1F0E0F1F1FF801E459FF4F83E03F
:1004600080830AC0F801EE0FFF1F0E0F1F1FF80157
:10047000E459FF4F85E080830F90DF91CF911F916A
:100480000F9108950F931F93CF93DF931F92CDB7D2
:10049000DEB7082F10E0F801EE0FFF1FE00FF11F8D
:1004A000E05AFF4FBE016F5F7F4F80810E94AF0017
:1004B00089818130E1F4C801880F991F800F911F55
:1004C000FC01E459FF4F21812F5F2183FC01E05A99
:1004D000FF4F818128130BC0F801EE0FFF1F0E0F95
:1004E0001F1FF801E459FF4F118284E080830F90B1
:1004F000DF91CF911F910F9108950F931F93CF9389
:10050000DF931F92CDB7DEB7082F10E0F801EE0F92
:10051000FF1FE00FF11FE05AFF4FBE016F5F7F4FDB
:1005200080810E94AF008981813061F4F801EE0F73
:10053000FF1F0E0F1F1FF801E459FF4F81818F5FCE
:1005400081832AC0C801880F991F800F911FFC0169
:10055000E459FF4F2181FC01E05AFF4F81812817A8
:1005600050F0F801EE0FFF1FE00FF11FE459FF4FAD
:1005700085E0808308C0F801EE0FFF1FE00FF11F38
:10058000E459FF4F1082F801EE0FFF1F0E0F1F1FDF
:10059000F801E459FF4F11820F90DF91CF911F9125
:1005A0000F9108950F931F93CF93DF931F92CDB7B1
:1005B000DEB7082F10E0F801EE0FFF1FE00FF11F6C
:1005C000E05AFF4FBE016F5F7F4F80810E94AF00F6
:1005D0008981811109C0F801EE0FFF1F0E0F1F1F47
:1005E000F801E459FF4F10820F90DF91CF911F91D6
:1005F0000F910895282F30E0F901EE0FFF1F2E0F05
:100600003F1FF901E459FF4F9081923091F028F497
:10061000992349F0913051F00895943081F060F0C1
:10062000953081F008950E94A80108950E94DA0192
:1006300008950E940E0208950E94420208950E94A9
:100640007D0208950E94D20208951F93CF93DF93F5
:1006500010E017C0812F90E0FC01EE0FFF1FEF01AB
:10066000C80FD91FFE01E05AFF4F60E080810E9451
:100670007600FE01E459FF4F85E0808311821282EB
:100680001F5F112339F3DF91CF911F910895CF930D
:10069000C0E004C08C2F0E94FA02CF5FCC23D1F3BC
:1006A000CF91089581110BC090E0FC01EE0FFF1F68
:1006B0008E0F9F1FFC01E459FF4F8081089586E053
:1006C0000895E82FF0E03197EE0FFF1FED59FF4F2F
:1006D00060E080810E941E010895E82FF0E03197CC
:1006E000EE0FFF1FED59FF4F61E080810E941E0158
:1006F00008951F93CF93DF9310E016C0C12FD0E071
:10070000CC0FDD1FCD59DF4F61E088810E9476005C
:100710008981813021F4810F0E946D0304C081E042
:10072000810F0E9461031F5F143040F3DF91CF916E
:080730001F910895F894FFCF1A
:0C073800120114080009000A000B000068
:00000001FF
