S00E00004C45445F56322E737265635A
S11300000C942A000C9449000C9447000C9447006B
S11300100C9447000C9447000C9447000C94470040
S11300200C9447000C9447000C9447000C94470030
S11300300C9447000C9447000C9447000C94470020
S11300400C9447000C9447000C9447000C94470010
S11300500C94470011241FBECFE5D8E0DEBFCDBF0E
S113006010E0A0E6B0E0E2E4F4E002C005900D92F6
S1130070A037B107D9F720E0A0E7B0E001C01D9296
S1130080A437B207E1F70E9489000C941F020C9474
S113009000001F920F920FB60F9211248F9380913C
S11300A07000882321F085E08093600003C08F5F97
S11300B0809370008F910F900FBE0F901F90189532
S11300C00E94A5010E94FE017894D1E0C1E005C020
S11300D0D1E0C0E002C0D1E0C1E0C13069F4809158
S11300E060008530D1F7109260008D2F0E94ED01E1
S11300F0D43071F3DF5FF1CF80916000853069F710
S1130100109260008D2F0E94DC01D43021F3DF5F58
S1130110E4CF0E94600080E090E008958032A8F56A
S1130120883058F49AB370E002C0660F771F8A953E
S1130130E2F7692B6ABB80E00895803160F488504F
S113014097B370E002C0660F771F8A95E2F7692BB8
S113015067BB80E00895883160F4805194B370E007
S113016002C0660F771F8A95E2F7692B64BB80E0B3
S11301700895885191B370E002C0660F771F8A9585
S1130180E2F7692B61BB80E0089581E00895803235
S113019008F085C08830F8F4613071F44BB321E085
S11301A030E0B90102C0660F771F8A95E2F7CB01F0
S11301B0842B8BBB80E008954BB321E030E0B90180
S11301C002C0660F771F8A95E2F7CB0180958423DE
S11301D08BBB80E00895803100F58850613071F464
S11301E048B321E030E0B90102C0660F771F8A9559
S11301F0E2F7CB01842B88BB80E0089548B321E06B
S113020030E0B90102C0660F771F8A95E2F7CB018F
S11302108095842388BB80E00895883100F580515F
S1130220613071F445B321E030E0B90102C0660FDA
S1130230771F8A95E2F7CB01842B85BB80E0089574
S113024045B321E030E0B90102C0660F771F8A95FB
S1130250E2F7CB018095842385BB80E00895885123
S1130260613071F442B321E030E0B90102C0660F9D
S1130270771F8A95E2F7CB01842B82BB80E0089537
S113028042B321E030E0B90102C0660F771F8A95BE
S1130290E2F7CB018095842382BB80E0089581E05E
S11302A00895833008F047C0623008F046C0E82F54
S11302B0F0E0EF59FF4F21E030E0008002C0220F50
S11302C0331F0A94E2F72BBF823079F4662319F0C6
S11302D0613031F034C084B78F7B84BF80E00895EF
S11302E084B7806484BF80E00895811112C06623BE
S11302F019F0613049F025C085B7826085BF85B7A4
S11303008E7F85BF80E0089585B7836085BF80E0D8
S11303100895662319F0613049F015C085B78860E7
S113032085BF85B78B7F85BF80E0089585B78C60D6
S113033085BF80E0089581E0089581E0089580E01C
S1130340089580E0089580E00895EF92FF920F935E
S11303501F93CF93DF9310E026C0C12FD0E0CE01CE
S1130360880F991F880F991F9C012C593F4F7901C1
S1130370F901008160E0802F0E948E0061E0802FEF
S11303800E94C70060E0F70183810E945101CE0101
S1130390880F991FC80FD91FCF58DF4F85E0888376
S11303A019821A821F5F1123C1F2DF91CF911F912D
S11303B00F91FF90EF900895853068F4E82FF0E0F6
S11303C03197EE0FFF1FE859FF4F60E080810E94D4
S11303D0C70080E0089581E00895853068F4E82F2F
S11303E0F0E03197EE0FFF1FE859FF4F61E0808185
S11303F00E94C70080E0089581E008951F93CF9381
S1130400DF9310E016C0C12FD0E0CC0FDD1FC85918
S1130410DF4F61E088810E948E008981813021F460
S1130420810F0E94ED0104C081E0810F0E94DC0174
S11304301F5F143040F3DF91CF911F910895F8941A
S1050440FFCFE8
S1130442020607051A011400080009000A000B003D
S9030000FC
